:020000040800F2
:100000009807002089010008AB1C0008EB100008CD
:10001000D11600088F020008F32600080000000037
:100020000000000000000000000000003124000873
:1000300091020008000000001D240008332400087D
:10004000A3010008A3010008A3010008A301000800
:10005000A3010008A3010008A3010008A3010008F0
:10006000A3010008A3010008A3010008A3010008E0
:10007000A3010008A3010008A3010008A3010008D0
:10008000A3010008A3010008A3010008A3010008C0
:10009000A3010008A3010008A3010008A3010008B0
:1000A000A3010008A3010008A3010008A3010008A0
:1000B000A301000899240008A5240008A301000852
:1000C000A3010008A3010008A3010008A301000880
:1000D000A3010008A3010008A3010008A301000870
:1000E000A3010008A3010008A301000800F002F822
:1000F00000F03AF80AA090E8000C82448344AAF188
:100100000107DA4501D100F02FF8AFF2090EBAE885
:100110000F0013F0010F18BFFB1A43F0010318473B
:10012000903F0000B03F0000103A24BF78C878C16B
:10013000FAD8520724BF30C830C144BF04680C60ED
:10014000704700000023002400250026103A28BF35
:1001500078C1FBD8520728BF30C148BF0B60704739
:100160001FB51FBD10B510BD00F05CF81146FFF7BC
:10017000F7FF02F025FD00F07AF803B4FFF7F2FF75
:1001800003BC00F07DF8000009488047094800479B
:10019000FEE7FEE7FEE7FEE7FEE7FEE7FEE7FEE737
:1001A000FEE7FEE704480549054A064B7047000094
:1001B00095240008ED000008980100209807002011
:1001C00098030020980300204FF0000200B513466A
:1001D00094469646203922BFA0E80C50A0E80C5067
:1001E000B1F12001BFF4F7AF090728BFA0E80C5018
:1001F00048BF0CC05DF804EB890028BF40F8042B11
:1002000008BF704748BF20F8022B11F0804F18BF7D
:1002100000F8012B704770477047704700487047DF
:10022000340100207546FFF7F9FFAE460500694628
:10023000534620F00700854618B020B5FFF7B2FFFF
:10024000BDE820404FF000064FF000074FF00008D7
:100250004FF0000B21F00701AC46ACE8C009ACE858
:10026000C009ACE8C009ACE8C0098D46704710B5BC
:100270000446AFF300802046BDE81040FFF77DBF85
:1002800001491820ABBEFEE7260002007047FEE7DA
:10029000704772B6FEE7000070B5044600F010F932
:1002A0000546601C02D004480078044400F008F9B8
:1002B000401BA042FAD370BD180000202DE9F84F72
:1002C000DFF8B8910024A9F1040B23460F2709F1A8
:1002D000040AABF1040EC9E00125A5402A40AA4258
:1002E0007DD1674ED1F804C0ACEB0608B44532D0DE
:1002F00014DCBCF1030F3AD009DCBCF1000F2AD0AA
:10030000BCF1010F1CD0BCF1020F31D11DE0BCF1DA
:10031000110F17D0BCF1120F2AD119E0B8F5881FC0
:1003200019D006DCB8F5803F15D0B8F5801F1FD175
:1003300011E0B8F5001F0ED0B8F5041F18D10AE07F
:10034000CB6815E0CB681B1D12E0CB6808330FE0CB
:10035000CB680C330CE08B682BB1012B4FF00803FA
:1003600003D0456104E0042302E0056100E00023BE
:10037000FF2A01D8064601E000F104064FEA840591
:1003800001D9A5F12005D6F8008007FA05FC28EA76
:100390000C0803FA05F548EA0508C6F800804D6820
:1003A000ED0062D5374DAE6946F00106AE61AD692C
:1003B00024F0030605F001050095334D06EB050C0E
:1003C000DCF80850A607360F07FA06F825EA0805F4
:1003D000DFF8B880404503D14FF0000817E044E053
:1003E000DFF8AC80404502D14FF001080FE0DFF8A4
:1003F000A480404502D14FF0020808E0DFF8988061
:10040000404502D14FF0030801E04FF0040808FA1C
:1004100006F848EA0508CCF808804D68D9F800606D
:10042000ED024D4601D5164300E096432E604D681F
:10043000DAF80060AD02554601D5164300E0964358
:100440002E604D68DBF80060AD035D4601D51643B4
:1004500000E096432E604D68DEF80060ED037546BF
:1004600001D5164300E096432E60641C0D682A46B1
:10047000E5407FF431AFBDE8F88F0000080401408B
:10048000000011100010024000000140000801406F
:10049000000C014000100140001401408068084039
:1004A00000D001207047C26821EA02030A4043EAF3
:1004B0000241016170470AB1016170470904FBE71D
:1004C00001488068704700001800002002488168D9
:1004D000027811448160704718000020074810B569
:1004E000016841F010010160032000F075F80F2051
:1004F00000F006F800F024F8002010BD00200240B3
:1005000070B50D4D04464FF47A712878B1FBF0F0C8
:100510000A490968B1FBF0F000F0BCFA48B9102CA8
:1005200007D200222146501E00F036F800206C60F1
:1005300070BD012070BD00001800002024000020C4
:100540000C4808B5816941F001018161816901F0C0
:1005500001010091C16941F08051C161C06900F0A1
:10056000805000900448416821F0E06141F0007142
:10057000416008BD0010024000000140002809DB76
:1005800000F01F02012191404009800000F1E020AD
:10059000C0F8001170470000F0B40E4B1B680C4609
:1005A000C3F30223C3F10705042D00D90425191D47
:1005B000072901D2002300E0DB1E012606FA05F11F
:1005C000491E214099409E40761E16403143F0BCA2
:1005D00002F0B4B80CED00E0064900F0070208682C
:1005E0004FF6FF03184040EA0220034A1043086018
:1005F000704700000CED00E00000FA052DE9F0471F
:100600000F46050061D0434E306800F00700B84245
:1006100009D2306820F0070038433060306800F0BD
:100620000700B84251D128683B4C810712D54007DA
:1006300003D5606840F4E06060602878000703D567
:10064000606840F4605060606068A96820F0F00065
:10065000084360602878C00728D06868012810D057
:100660002168022810D0890700292EDA616821F05C
:10067000030101436160FFF723FF804641F288399F
:100680000DE021688903EFE78901EDE7FFF718FF27
:10069000A0EB0801494502D90320BDE8F087606856
:1006A000696800F00C00B0EB810FEFD1306800F00A
:1006B0000700B8420BD9306820F00700384330609B
:1006C000306800F00700B84201D00120E5E7287843
:1006D000400705D56068E96820F4E0600843606081
:1006E0002878000706D56068296920F4605040EA40
:1006F000C100606000F018F86168084AC1F3031196
:10070000515CC8400649086006480068FFF7F8FEDB
:100710000020C2E700200240001002400C3A00080E
:10072000240000201C0000200E4A51680E4801F0F1
:100730000C03042B11D0082B0FD10C48C1F38343B9
:10074000C903C05C0AD55168084AC1F34041921EF2
:10075000515C054A5043B0FBF1F0704704494843EF
:10076000704700000010024000127A00FC390008B7
:1007700000093D002DE9F84F040070D02078C04DED
:10078000C00749D06868C0F38100012807D06868B5
:10079000C0F38100022809D16868C00306D5286823
:1007A000800339D560680028E7D035E06068B0F58F
:1007B000803F0BD010B1B0F5A02F11D0286820F4E5
:1007C00080302860286820F4802002E0286840F407
:1007D00080302860606890B1FFF772FE06460AE03C
:1007E000286840F480202860F0E700BFFFF768FE2B
:1007F000801B642873D828688003F7D50CE0FFF7C6
:100800005FFE064605E000BFFFF75AFE801B642826
:10081000F0D828688003F7D420789A4E80074FF0EC
:1008200001094FF0000839D5686810F00C0F07D0A7
:100830006868C0F38100022809D16868C00306D443
:100840002868800714D52069012808D110E02069A4
:10085000B0B1C6F80090FFF733FE074605E00AE1A5
:10086000FFF72EFEC01B0228C4D828688007F7D5E2
:100870002868616920F0F80040EAC10028600DE0B6
:10088000C6F80080FFF71CFE074604E0FFF718FEDD
:10089000C01B022823D828688007F7D420780007D7
:1008A0002CD57948A169D9B1C0F80090FFF708FEAE
:1008B000074604E0FFF704FEC01B02280FD8686A51
:1008C0008007F7D571484FF4FA510068B0FBF1F09A
:1008D000009000BF0098411E0091FAD20EE080E027
:1008E000C0F80080FFF7ECFD074604E0FFF7E8FDE5
:1008F000C01B022875D8686A8007F7D420784007A3
:1009000060D5E8690027C00008D4E86940F080504D
:10091000E861E869012700F0805000905C480168B8
:10092000C90513D40168834641F480710160FFF763
:10093000C7FD824606E000BFFFF7C2FDA0EB0A003C
:1009400064284ED8DBF80000C005F5D5E068012822
:100950000AD008B1052813D0286A20F001002862C7
:10096000286A20F0040002E0286A40F001002862B2
:10097000E06841F2883B98B1FFF7A2FD82460BE0A8
:10098000286A40F004002862EEE700BFFFF798FDF8
:10099000A0EB0A0159455AD8286A8007F6D50CE021
:1009A000FFF78EFD824605E0FFF78AFDA0EB0A0106
:1009B00059454CD8286A8007F6D41FB1E86920F061
:1009C0008050E861E06988B36968C1F38101022958
:1009D00044D00228C6F8608004D0FFF771FD0446B9
:1009E00038E034E0FFF76CFD074604E0FFF768FDF0
:1009F000C01B02282BD828688001F7D4206AB0F5E4
:100A0000803F05D16868A16820F400300843686021
:100A1000D4E908010843696821F474110843686047
:100A2000C6F86090FFF74CFD044606E025E000BFE5
:100A3000FFF746FD001B022809D828688001F7D57A
:100A40001BE000BFFFF73CFD001B022802D903207A
:100A5000BDE8F88F28688001F4D40EE00128F7D0B3
:100A60006868226A00F48031914204D1616A00F41E
:100A70007010884201D00120EAE70020E8E700007A
:100A80000010024000004242800442422400002044
:100A90000070004010B5401EB0F1807F01D30120EE
:100AA00010BD4FF0E02460610F21601701F046FE99
:100AB0000020A06107202061002010BD7047704712
:100AC00070B590F83C20012A26D0012480F83C40E3
:100AD000022280F83D2003685A689D6822F0700663
:100AE0000A6832435A600D4B02689A4208D0B2F14C
:100AF000804F05D00A4B9A4202D00A4B9A4204D149
:100B0000496825F080031943916080F83D40002139
:100B100080F83C10084670BD022070BD002C0140DA
:100B2000000400400008004010B5040003D094F811
:100B30003D0010B107E0012010BD002084F83C000A
:100B4000204600F01FF8022084F83D00211D206897
:100B500001F0AEFC012084F8460084F83E0084F8E1
:100B60003F0084F8400084F8410084F8420084F893
:100B7000430084F8440084F8450084F83D000020D8
:100B800010BD000008B5154A0168154891420ED104
:100B9000C16941F00201C161C069002200F0020098
:100BA000009011461D20FFF7F7FC1D2010E00D4AB4
:100BB000914211D1C16941F00401C161C0690022B3
:100BC00000F00400009011461E20FFF7E5FC1E20F7
:100BD000BDE80840FFF7D2BC08BD0000000400409B
:100BE000001002400008004090F83D10012901D09B
:100BF00001207047022180F83D100168CA6842F068
:100C00000102CA6000680B49884208D0B0F1804FE9
:100C100005D00949884202D00849884204D1816838
:100C200001F00701062903D0016841F001010160CC
:100C300000207047002C01400004004000080040E4
:100C400070B5044690F83C000025012817D0012615
:100C500084F83C60022084F83D002068826822F01D
:100C6000770222F47F4282600868502838D00DDC79
:100C700020284FD005DC90B3102811D14AE0022083
:100C800070BD302846D040280AD13BE060282FD0E4
:100C900070280DD0B0F5805F03D0B0F5005F12D0A2
:100CA000012584F83D60002084F83C00284670BD92
:100CB000CB68D1E90121206801F043FC20688168FC
:100CC00041F0770109E0CB68D1E90121206801F00A
:100CD00038FC2068816841F480418160E1E719E0D7
:100CE000CA684968206801F0E1FC5021206806E0EC
:100CF000CA684968206801F0EAFC6021206801F0B8
:100D00002AFCCEE7CA684968206801F0CFFC402180
:100D10002068F4E7226801461046F0E770472DE9A5
:100D2000F04104460068C66805694FF00007A9074E
:100D300013D5B10711D5F91E016101202077206874
:100D400080698007204602D0FFF7E8FF04E000F04A
:100D5000A5F8204600F037F92777680716D5700701
:100D600014D521686FF00400086102202077206804
:100D7000806910F4407F204602D0FFF7CFFF04E0E7
:100D800000F08CF8204600F01EF92777280715D5CB
:100D9000300713D521686FF0080008610420207720
:100DA0002068C0698007204602D0FFF7B7FF04E043
:100DB00000F074F8204600F006F92777E80616D50B
:100DC000F00614D521686FF0100008610820207724
:100DD0002068C06910F4407F204602D0FFF79EFFD4
:100DE00004E000F05BF8204600F0EDF82777E80714
:100DF00008D0F00706D021686FF001000861204696
:100E000000F030F9280608D5300606D521686FF0C5
:100E1000800008612046FFF751FE680608D570067D
:100E200006D521686FF040000861204600F05CF9AB
:100E3000A8060AD5B00608D521686FF02000086121
:100E40002046BDE8F041FFF73ABEBDE8F081000062
:100E500000B585B0002100910191029103910068D5
:100E60000B49884211D10B48816941F00801816129
:100E70008069694600F00800049003200090022079
:100E8000019003900448FFF719FA05B000BD000077
:100E90000004004000100240000C0140704770B593
:100EA000044690F83C0000260D4601280FD0012092
:100EB00084F83C006AB1042A1DD0082A2FD00C2ADD
:100EC0003FD00126002084F83C00304670BD02204F
:100ED00070BD206801F048FB2068816941F008017D
:100EE00081612068816921F0040181612068816944
:100EF0002A69114311E0206801F05EFB20688169D6
:100F000041F4006181612068816921F4806181611F
:100F1000206881692A6941EA02218161D2E720685B
:100F200001F076FB2068C16941F00801C1612068C9
:100F3000C16921F00401C1612068C1692A691143B6
:100F400011E0206801F090FB2068C16941F4006164
:100F5000C1612068C16921F48061C1612068C169F3
:100F60002A6941EA0221C161ACE710B5040003D04F
:100F700094F83D0010B107E0012010BD002084F876
:100F80003C00204600F01EF8022084F83D00211DA0
:100F9000206801F08DFA012084F8460084F83E00B4
:100FA00084F83F0084F8400084F8410084F842004F
:100FB00084F8430084F8440084F8450084F83D0038
:100FC000002010BD7047704710B50446022249B199
:100FD00004290ED0082913D094F84100012816D016
:100FE000012010BD94F83E000128F9D184F83E207C
:100FF0000FE094F83F000128F2D184F83F2008E088
:1010000094F840000128EBD184F8402001E084F8F6
:1010100041200122206801F087FA0F4920688842A8
:1010200003D1426C42F4004242642068884208D0F6
:10103000B0F1804F05D00949884202D00849884262
:1010400004D1816801F00701062903D0016841F04D
:1010500001010160002010BD002C0140000400408F
:101060000008004070B500681C491D4C88421FD123
:10107000A078401CC0B2A070052818D300F036F844
:101080006070207800250028E07807D010B100F0CB
:101090000DFEE570607800F0B3FB07E018B900F0D2
:1010A00005FE0120E070607800F04AFBA57070BD7D
:1010B0000C498842FBD1207860B1E06801F068F803
:1010C0000020616800F01AFDA168BDE870400120B1
:1010D00000F014BDBDE8704001F0BAB8000800404F
:1010E00000000020000400407047FEE710B51F4CD0
:1010F0002079207060796070A079A070E079E0704C
:101100004FF4805000F038F820714FF4006000F088
:1011100033F860714FF4806000F02EF8A0714FF446
:10112000007000F029F8E0712179227891430BD00A
:101130004FF400510E48FFF7B6F90E48017881F0E0
:1011400001010170012010BD61796278914301D0E5
:10115000022010BDA179A278914301D0032010BDD7
:10116000E1788843FBD0042010BD00002800002057
:10117000001001400000002010B501460348FFF7B1
:101180008DF900B1012080F0010010BD0008014080
:10119000904201D9084670478842FCD210467047F9
:1011A00010F1FF4F01D30020704702498842FBDD58
:1011B0000846704700007A442DE9F05F614DB5F9AB
:1011C000080001F08BFFDFF884815F4A434601F09D
:1011D0002DFEDFF87C91DFF87CA14A46534601F0F2
:1011E00095FF5D4C06460F46606802F083F9324673
:1011F0003B4602F095F801F037FDA061B5F9060015
:1012000001F06CFF504A434601F010FE4A46534637
:1012100001F07CFF06460F46A06802F06BF93246EB
:101220003B4601F053FD01F01FFDE061B5F90A00F6
:1012300001F054FF444A434601F0F8FD4A46534644
:1012400001F064FF06460F46206802F053F932466B
:101250003B4601F03BFD01F007FD6061B5F904007C
:1012600001F03CFF06460F46B5F9000001F036FFDD
:1012700032463B4601F0E4FBDFF8E080DFF8E09027
:1012800042464B4601F0D2FDDFF8D8A0002253467B
:1012900001F03CFF01F0E8FCE060B5F9040001F06A
:1012A0001DFF06460F46B5F9020001F017FF324652
:1012B0003B4601F0C5FB42464B4601F0B7FD00221C
:1012C000534601F023FF01F0CFFC06462061E068A1
:1012D00002F010F9DFF89080DFF890A04246534604
:1012E00001F014FF07460D46A06902F003F9DFF88C
:1012F00080B0DFF880905A464B4601F007FF3A462F
:101300002B4601F0E3FC01F0AFFC6060304602F0D8
:10131000F1F84246534601F0F9FE06460D46E069F3
:1013200002F0E8F85A464B4601F0F0FE32462B46F2
:1013300001F0CCFC01F098FCA06060692060BDE881
:10134000F09F0000980000209A99999999990B4074
:10135000FCA9F1D24D62503F380000201F85EB51AF
:10136000B81E094000806640CF143AAFB14B843FAD
:10137000AD174339D1AEEF3F70B504463B2000F0C6
:101380005BF805463C2000F057F840EA0520208035
:101390003D2000F051F805463E2000F04DF840EAAF
:1013A000052060803F2000F047F80546402000F00F
:1013B00043F840EA0520A080432000F03DF80546B0
:1013C000442000F039F840EA05202938E080452023
:1013D00000F032F80546462000F02EF840EA0520DD
:1013E00000F28D102081472000F026F805464820A5
:1013F00000F022F840EA05207030608170BD10B521
:1014000000F064F901216B2000F035F800216C2018
:1014100000F031F80921192000F02DF806211A20DA
:1014200000F029F818211B2000F025F81821BDE84C
:1014300010401C2000F01FB810B5044600F01AFC44
:10144000D02000F003FC00F0CDFB204600F0FEFBB6
:1014500000F0C8FB00F00EFCD12000F0F7FB00F01C
:10146000C1FB00F0CEFB0446012000F0E4FB00F0DD
:1014700010FC204610BD70B50D46044600F0FAFB86
:10148000D02000F0E3FB00F0ADFB204600F0DEFBD7
:1014900000F0A8FB284600F0D9FB00F0A3FBBDE854
:1014A000704000F0F6BB00002DE9F04385B0002449
:1014B0003D480094019402940394816941F0100125
:1014C0008161816901F010010491816941F020017D
:1014D0008161816901F020010491816941F0040179
:1014E0008161816901F004010491816941F0080181
:1014F00081618069012200F008002C4F550304909F
:1015000029463846FEF7D7FFDFF8A48000223C21A9
:101510004046FEF7D0FFDFF89C9001224FF4706147
:101520004846FEF7C8FF0095032601250396CDE93E
:10153000015469463846FEF7C1FE3C20CDE900055E
:10154000CDE9025669464046FEF7B8FEC027CDE910
:101550000074694640460294FEF7B0FEB002009067
:1015600001AA112082E8510069464846FEF7A6FE0E
:101570004FF4F0508DE8310069464046FEF79EFE7C
:10158000CDE90074694648460294FEF797FE3002A2
:10159000CDE90005CDE9025669464846FEF78EFEC4
:1015A00005B0BDE8F08300000010024000100140CB
:1015B00000080140000C014010B58EB000240794D3
:1015C000089409940A940B941C2168460C94FEF725
:1015D000FBFD2348214901604721C0E9011440F285
:1015E000E731C0E9031480218161FFF79DFA08B15A
:1015F000FEF74FFE4FF48050079007A91848FFF7F9
:101600001FFB08B1FEF745FE1548FFF7AEFC08B119
:10161000FEF73FFE0B940BA911480C94FFF750FA0C
:1016200008B1FEF736FE6020CDE9000402940822DE
:1016300069460B480494FFF732FC08B1FEF729FE17
:101640000C2269460648FFF72AFC08B1FEF721FE86
:101650000348FFF7FDFB0EB010BD00000004004082
:10166000A400002010B586B000241748009401940F
:1016700002940394049413490594016040F2CF212D
:10168000C0E901146321C0E9031480218161FFF7DF
:101690004BFA08B1FEF7FDFD4FF48050009069460B
:1016A0000948FFF7CDFA08B1FEF7F3FD049404A949
:1016B00005480594FFF704FA002801D0FEF7E9FD7C
:1016C00006B010BD00080040EC000020FFF7ECBEA3
:1016D000FEE7012905D0022905D0032905D100F034
:1016E000C5BD00F053BE00F009BE704710B50DA295
:1016F0000721012000F016FD02210CA2084600F08F
:1017000011FD0CA20221032000F00CFD0BA202210E
:10171000042000F007FD3E220121BDE81040022018
:1017200000F0C2BB4D656E7500000000537065652A
:10173000640000004D5055363035300050494400AB
:1017400008490978012905D0022905D0032905D0C7
:10175000FFF7CCBF00F028B900F078B9024949780A
:10176000FFF7B7BF160000203000002070B51A4CFC
:101770000546207918B100F099FA0020207117A2CF
:101780000621012000F0CEFC16A20121022000F06B
:10179000C9FC154803231946B0F90020022000F0C7
:1017A00095FC12A20121032000F0BCFC1048032389
:1017B0001946B0F90020184600F088FC0DA201215E
:1017C000042000F0AFFC042D05D10C49012020714C
:1017D0000878401E087070BD3000002053706565A9
:1017E000640000004C3A000012000020523A000051
:1017F000140000203E4261636B00000016000020D0
:1018000070B51D4C0546607918B100F04FFA002004
:101810006071012119A2084600F084FC19480423D4
:1018200007210268012000F0D9FB17A20121022044
:1018300000F078FC1648042307210268022000F01B
:10184000CDFB14A20121032000F06CFC13480423FB
:1018500007210268032000F0C1FB11A2012104202E
:1018600000F060FC042D05D10F490120607108785B
:10187000401E087070BD0000300000205069746880
:10188000633A00003C000020526F6C6C3A0000008C
:10189000400000205961773A000000003800002025
:1018A0003E4261636B0000001600002070B5334CAF
:1018B00006460125E07938B1A57100F0F7F9A07965
:1018C00000F0D6F80020E0712DA20221012000F0E6
:1018D00029FC2C48032307210268012000F018FB93
:1018E000022129A2084600F01DFC284803230721F5
:1018F0000268022000F00CFB25A20221032000F068
:1019000011FC2448032307210268184600F000FB5D
:1019100021A20221042000F005FC21490B781BB90B
:10192000022E15D0032E16D0042E10D1A2791D48F8
:10193000042A1DD0012A03D0022A01D0032A06D18D
:1019400083F001030B700178491C0170627070BD57
:10195000A079401E01E0A079401CC0B2A071042211
:101960000121FFF715FCA071BDE8704000F080B8C0
:101970000178491E0170E57170BD00003000002043
:10198000503A000080000020493A00008400002006
:10199000443A0000880000204261636B00000000B0
:1019A000100000201600002070B51F4C0546E0789E
:1019B00030B100F07BF9A07800F05AF80020E07018
:1019C0001AA20721012000F0ADFB022119A208464E
:1019D00000F0A8FB19A20221032000F0A3FB19A22A
:1019E0000221042000F09EFB022D0DD0032D0ED00D
:1019F000042D08D114490878401C08700120E070BB
:101A0000A078401E207070BDA078401E01E0A07834
:101A1000401CC0B2A07004220221FFF7B9FBA070E5
:101A2000BDE8704000F024B8300000204D656E75B0
:101A30000000000053706565640000004D5055368D
:101A4000303530005049440016000020074909781D
:101A5000012905D0022905D0032905D0FFF746BE8C
:101A6000FFF784BEFFF7CCBEFFF720BF3000002099
:101A700010B5012808D002280DD003281CD0042856
:101A80004FF0200201D123E03E220121084600F060
:101A90000BFA202205E001212022084600F004FA7A
:101AA0003E220121022000F0FFF920220121032023
:101AB00000F0FAF920221AE001212022084600F065
:101AC000F3F920220121022000F0EEF93E22EDE799
:101AD0000121084600F0E8F920220121022000F04F
:101AE000E3F920220121032000F0DEF93E2201214A
:101AF000BDE81040042000F0D7B900002DE9F04106
:101B00000D462449244E254F85F0004478B1012824
:101B10002CD18D422CD2012210213046FEF7CBFC75
:101B2000002220213046FEF7C6FC28462BE08D42DD
:101B30000BD2002208213046FEF7BDFC0122042111
:101B40003046FEF7B8FC28460AE00122082130465C
:101B5000FEF7B1FC002204213046FEF7ACFC204623
:101B6000FFF71EFB01F070FD3968C863BDE8F08126
:101B7000002210213046FEF79EFC01222021304633
:101B8000FEF799FC2046FFF70BFB01F05DFD39687D
:101B90000864EBE70000808000080140A4000020FA
:101BA00010B500210846FFF7A9FF00210120FFF72B
:101BB000A5FF0B4C002204212046FEF77CFC0022EE
:101BC00008212046FEF777FC002210212046FEF770
:101BD00072FC20460022BDE810402021FEF76BBCBD
:101BE0000008014010B5012000F08CFD012000F03C
:101BF00081FD00F015FC0446002000F07BFD20462E
:101C000010BD70B50025012000F07CFD0024802669
:101C1000012000F06FFD00F003FC012802D126FA3C
:101C200004F00543002000F065FD641CE4B2082CBC
:101C3000EED3284670BD10B500F064FD012000F021
:101C400059FDBDE81040002000F054BD70B50024DF
:101C50000546802626FA04F0284000F053FD0120B6
:101C600000F048FD002000F045FD641CE4B2082CA3
:101C7000F0D370BD10B5012000F044FD012000F04C
:101C800039FD002000F03EFDBDE81040002000F0CE
:101C900031BD10B5002000F035FD012000F02AFD17
:101CA000BDE81040012000F02DBDFEE770B5002416
:101CB0000021204600F0E7F80025002000F056FA49
:101CC0006D1CEDB2802DF8D3641CE4B2082CEFD368
:101CD00070BD000010B5FFF7E7FB064C01221102B2
:101CE0002046FEF7E8FB20460122BDE810405102E5
:101CF000FEF7E1BB000C01402DE9F047164E002431
:101D000007464FF080084FF40079B51528FA04F023
:101D1000384201D0012200E0002249463046FEF759
:101D2000CAFB012229463046FEF7C5FB00222946A0
:101D30003046FEF7C0FB641CE4B2082CE6D3012257
:101D400029463046FEF7B7FB29463046BDE8F04746
:101D50000022FEF7B0BB0000000C014070B501226C
:101D60000B4D540221462846FEF7A5FB0122160220
:101D700031462846FEF79FFB002221462846FEF703
:101D80009AFB31462846BDE870400022FEF793BB1F
:101D9000000C014070B50A4D4FF40074002221463A
:101DA0002846FEF788FB012211022846FEF783FB36
:101DB00021462846BDE870400122FEF77CBB0000AA
:101DC000000C014010B500204FF47A720121491C2B
:101DD0009142FCD30221491C9142FCD3401C904209
:101DE000F4D3FFF777FFAE2000F0AFF9D52000F075
:101DF000ACF9802000F0A9F9A82000F0A6F93F2056
:101E000000F0A3F9D32000F0A0F9002000F09DF924
:101E1000402000F09AF9A12000F097F9C82000F0C6
:101E200094F9DA2000F091F9122000F08EF9812067
:101E300000F08BF9CF2000F088F9D92000F085F967
:101E4000F12000F082F9DB2000F07FF9302000F073
:101E50007CF9A42000F079F9A62000F076F98D2015
:101E600000F073F9142000F070F9AF2000F06DF964
:101E7000BDE81040FFF71ABF0246012000E05043C2
:101E8000491EFCD2704710B50C4640F0B00000F07F
:101E90005CF9102040EA141000F057F904F00F002C
:101EA000BDE8104000F051B92DE9F0410746CE00E1
:101EB0004000083E801E15464FF0FF38F1B2C0B218
:101EC000FFF7E1FF1148002400EB05152819A0F5E4
:101ED000805090F8000E00F049F9641CE4B2082C20
:101EE000F4D308EB4700F1B2C0B2FFF7CCFF0024F7
:101EF0002819A0F5805090F8080E00F037F9641CFE
:101F0000E4B2082CF4D3BDE8F08100001C3A0008CC
:101F10002DE9F0471D4691460E46824600244FF0BB
:101F20000A0816E0484601F08FFB0746291B0A20E5
:101F3000491EFFF7A1FFB7FBF0F1B1FBF8F208FB78
:101F400012123019C1B250463032FFF7ADFF641C97
:101F5000E4B2AC42E6D33019401CC1B22E22504646
:101F6000FFF7A2FF641CE4B21A49484601F08CFB5B
:101F700001F06AFB0746291B0A20491CFFF77CFF7A
:101F8000B7FBF0F1B1FBF8F208FB12123019401C5C
:101F9000C1B250463032FFF787FF641CE4B20E49ED
:101FA000484601F071FB01F04FFB0746291B0A2050
:101FB000891CFFF761FFB7FBF0F1B1FBF8F208FBFA
:101FC00012123019401CC1B25046BDE8F047303201
:101FD000FFF76ABF000020410000C8422DE9F05F12
:101FE0001D46904683460E4612F1FF4F05D22B2226
:101FF0005846FFF759FFC14605E02D225846FFF726
:1020000053FF88F0004900244FF00A0A17E04846C1
:1020100001F0FEFA0746291B0A20491EFFF72CFF94
:10202000B7FBF0F1B1FBFAF20AFB12123019401CB7
:10203000C1B258463032FFF737FF641CE4B2AC42FD
:10204000E5D33019401CC1B22E225846FFF72CFFB1
:10205000641CE4B21B49404601F016FB01F0D8FABB
:102060000746291B0A20491CFFF706FFB7FBF0F1C2
:10207000B1FBFAF20AFB12123019401CC1B2D14670
:1020800058463032FFF710FF641CE4B20E49404658
:1020900001F0FAFA01F0BCFA0746291B0A20891C54
:1020A000FFF7EAFEB7FBF0F1B1FBF9F209FB121200
:1020B0003019401CC1B25846BDE8F05F3032FFF71E
:1020C000F3BE0000000020410000C8422DE9F047A7
:1020D0001E4614008846814604D42B22FFF7E4FEF6
:1020E000254603E02D22FFF7DFFE654200240A2784
:1020F00014E0311B0A20491EFFF7BEFEB5FBF0F0CD
:10210000B0FBF7F107FB110208EB0400401CC1B261
:1021100048463032FFF7C8FE641CE4B2B442E8D34C
:10212000BDE8F0872DE9F04115460E46074600242C
:1021300006E03019C1B23846FFF7B6FE641CE4B2BF
:102140002A5D002AF5D1BDE8F08110B50446FFF7FD
:1021500005FE7820FFF7D0FD0020FFF7CDFD2046DB
:10216000FFF7CAFDBDE81040FFF714BE10B50446E6
:10217000FFF7F4FD7820FFF7BFFD4020FFF7BCFD1F
:102180002046FFF7B9FDBDE81040FFF703BE000091
:102190002DE9F041254C2649666BA663096801F0DC
:1021A0003FFB054601466063E06B01F0CFF9214932
:1021B000E063884202DC2049884200D9E16331466D
:1021C000284601F02DFB216B01F05EFA0646E16B1B
:1021D000E06A01F059FA0746A06A294680F00040FB
:1021E00001F052FA394601F01BFB314601F018FBB1
:1021F000124A1349134B904202DD10461A6009E05F
:10220000114A904202D910461A6009E01860B0F5F0
:10221000000F02DB01F09AF904E010F1FF4F01D347
:1022200001F0FEFA09490860BDE8F081580000207D
:102230003C00002000004843000048C300007A44EE
:102240000000F0410400002000007AC408000020D3
:102250000548002181614161016141620162C16102
:10226000C1638163416370475800002070B5204C02
:102270000546A07858B12D2205210320FFF714FE52
:102280002B220D210320FFF70FFE0020A070032357
:1022900007211846226BFFF73BFE4FF08041022DCD
:1022A0001CD0032D1ED0042D17D1A078002814D1E6
:1022B000202205210320FFF7F7FD20220D21032016
:1022C000FFF7F2FD0120A0700A48017881F00101BA
:1022D000017009490878401E087070BD206B01F03C
:1022E0009FFA02E0206B01F031F9206370BD00001D
:1022F00058000020100000201600002070B5204C6F
:102300000546607858B12D2205210220FFF7CCFD4B
:102310002B220D210220FFF7C7FD00206070032350
:1023200007210220E26AFFF7F3FD4FF07C51022DF6
:102330001CD0032D1ED0042D17D16078002814D195
:10234000202205210220FFF7AFFD20220D210220CF
:10235000FFF7AAFD012060700A48017881F00101B1
:10236000017009490878401E087070BDE06A01F0EC
:1023700057FA02E0E06A01F0E9F8E06270BD00009F
:1023800058000020100000201600002070B5204CDE
:102390000546207858B12D2205210120FFF784FD44
:1023A0002B220D210120FFF77FFD00202070032349
:1023B00007210120A26AFFF7ABFD4FF08041022DFB
:1023C0001CD0032D1ED0042D17D12078002814D145
:1023D000202205210120FFF767FD20220D21012089
:1023E000FFF762FD012020700A48017881F00101A9
:1023F000017009490878401E087070BDA06A01F09C
:102400000FFA02E0A06A01F0A1F8A06270BD00001E
:102410005800002010000020160000207047000027
:102420004FF400610148FEF739B80000000C01408C
:102430007047FEF74BB830B58FB028216846FDF7DE
:10244000C3FE14210AA8FDF7BFFE01210804CDE94F
:1024500000100024029402250491CDE907504FF4A6
:10246000E01009906846FEF785F908B172B6FEE7FC
:102470000F20CDE90A054FF48060CDE90C40022120
:102480000AA80E94FEF7BAF8002801D072B6FEE74B
:102490000FB030BD704700000148FEF740BC00009F
:1024A000A40000200148FEF73ABC0000EC00002028
:1024B000F0B50268194B1A4C1A4D4FF080479842FC
:1024C00005D0B84203D0A04201D0A84203D122F0E7
:1024D00070064A683243984205D0B84203D0A04201
:1024E00001D0A84203D122F44074CA6822434C6947
:1024F00022F08002224302608A68C2620A68826215
:10250000984201D109690163012141610169C9074B
:1025100003D0016921F001010161F0BD002C0140EF
:10252000000400400008004010B501F01F03012125
:10253000046A99408C430462016A9A401143016223
:1025400010BD10B5846842EA032224F47F440A4394
:102550002243826010BD826822F070020A4342F07A
:10256000070181607047000030B5036A026A22F0FB
:10257000010202624268846924F073050C682C43EE
:1025800023F002058B682B430A4DA8420BD123F0A0
:102590000805CB6822F440722B434D6923F00403F5
:1025A00015438A692A434260846149684163036232
:1025B00030BD0000002C014030B5026A036A23F0F0
:1025C00010030362436884690D6824F4E64444EA16
:1025D00005248D6822F0200242EA05120B4DA84224
:1025E0000ED1CD6822F0800242EA05124D6923F433
:1025F000406343EA85038D6922F0400243EA850384
:102600004360846149688163026230BD002C0140EF
:1026100030B5036A026A22F4807202624268C469B9
:1026200023F4007324F073050C682C438D6843EA8F
:1026300005230C4DA8420ED1CD6823F4006343EA74
:1026400005234D6922F4405242EA05128D6923F4B4
:10265000806342EA05124260C4614968C163036253
:1026600030BD0000002C014030B5046A026A22F43B
:10267000805202624268C3690D6823F4E64343EA6C
:1026800005238D6824F4005444EA0534064DA8421D
:1026900004D14D6922F4804242EA85124260C3614E
:1026A00049680164046230BD002C014010B5036A22
:1026B000046A24F001040462846924F0F00444EA0A
:1026C000021423F00A020A438461026210BD10B5AD
:1026D000036A046A24F010040462846923F0A003EE
:1026E00024F4704444EA023243EA01118261016237
:1026F00010BDFEE702464FF480610148FDF7DBBEE6
:10270000000C014002464FF400610148FDF7D3BEC2
:10271000000C0140490050EAC12018BF04204A0DB6
:1027200018BF40F0010040F2FF72B2EB515F08BFEA
:1027300040F00200012808BF052070470907090E74
:10274000002804DB00F1E02080F80014704700F05E
:102750000F0000F1E02080F8141D70472DE9F041D2
:102760004F1E00EBC7010446D1E9000115461E4685
:1027700037F006020DD02A46334600F0C7FC7F1E14
:1027800004EBC703D3E9002300F0A0FA37F00602F8
:10279000F1D1022F25D0042F13D0062F18BFBDE88A
:1027A000F0812A46334600F0B1FCD4E90A2300F058
:1027B0008DFA2A46334600F0A9FCD4E9082300F03C
:1027C00085FA2A46334600F0A1FCD4E9062300F03E
:1027D0007DFA2A46334600F099FCD4E9042300F040
:1027E00075FA2A46334600F091FCD4E9022300F042
:1027F0006DFA2A46334600F089FCD4E90023BDE88F
:10280000F04100F063BA012201F0B1B800F05EBA05
:10281000024A0020110701F0AAB8000001FDFFFFE5
:102820002DE9F84F04460D4621F000400091734910
:10283000814211DC7249884201DC06D12CB120466C
:102840002946BDE8F84FFFF7DEBF6E48002DCCBF2C
:102850006D496E49BDE8F88F6D49814211DD6D49C2
:102860008142D8BF4FF0FF366DDD20462946FFF785
:1028700051FF042808BFFFF7CBFF20462946BDE8DB
:10288000F88F6549654F25F00045814233DD644985
:10289000814219DD002632464FF08043204629460A
:1028A00000F014FA80468A4601222046294601F0AB
:1028B0005EF800223B4600F033FD4246534600F0EE
:1028C000B5FA04460D463EE001260022BA463B46D4
:1028D0002046294600F0FAF980460F46002253466A
:1028E0002046294600F01CFD42463B4600F09EFA79
:1028F00004460D4627E04B4981421BDDDFF828A145
:102900000226002253462046294600F0FFFB002203
:102910003B4600F0DBF980460F4600225346204636
:10292000294600F0FDFC42463B4600F07FFA044693
:102930000D4608E0032622462B4600203B4900F0C6
:1029400075FA04460D4622462B461046194600F0FD
:10295000DDFB8B46824602460B4600F0D7FB07465E
:102960000246334888460B4606217844FFF7F6FEB8
:1029700052465B4600F0CAFB82462E488B463A46DA
:10298000434605217844FFF7E9FE3A46434600F006
:10299000BDFB02460B46002E504659460CDA00F0AD
:1029A00095F922462B4600F0B1FB01B022462B469A
:1029B000BDE8F04F00F0A8BC00F088F922462B4695
:1029C00000F0A4FB1C4A7A4402EBC603D3E90023BF
:1029D00000F0A6FC22462B4600F0A2FC174A7A44DF
:1029E00002EBC603D3E9002300F08EFC009A002A14
:1029F000B8BF81F00041BDE8F88F0000000010442E
:102A00000000F07F182D4454FB21F93FFB21F9BF52
:102A10000000DC3F0000203E0000F33F0000F03FDC
:102A20000000E63F008003400000F83F0000F0BFD8
:102A30000A170000C8160000661600002E160000D7
:102A40002DE9F04D9446CCF1000423F000464CEA09
:102A50000404524F46EAD4749A46884621F0004254
:102A6000BC4206D8454240EA050442EAD474BC425E
:102A700004D9BDE8F04D6246FFF7C8BEAAF1405543
:102A8000A5F17F6555EA0C040BD0022404EAAA7470
:102A9000434DDFF810E144EAD87452EA000B04D049
:102AA0000CE0BDE8F04DFFF7BBBE002C14BF012CBD
:102AB000BDE8F08D022C30D0032C32D056EA0C0B3E
:102AC0000AD0BE4220D1BA4209D126F0804622F077
:102AD00080423346114617E000291ADB25E0DFF873
:102AE000C8B0FB44002C04BFDBE90001BDE8F08D59
:102AF000012C02BFDBE9000181F00041BDE8F08D4F
:102B0000022C0AD0032C0CD0BA4212D1B8F1000F1B
:102B10000BDA23482549BDE8F08D28462449BDE855
:102B2000F08D28467146BDE8F08D1D482149BDE86D
:102B3000F08D921B12153C2AC4BF19481D490EDCAA
:102B4000BAF1000FBEBF12F13C0F0020014606DBB8
:102B5000624600F06BF921F00041FFF761FE002CA6
:102B600008BFBDE8F08D012C04BF81F00041BDE835
:102B7000F08D114A114B022C07D000F0D1FB2A46F0
:102B8000BDE8F04D0A4B00F0CBBB00F0C9FB2A4674
:102B9000BDE8F04D064B00F0B7BB00000000F07F31
:102BA000182D4454FB2109C0C2150000FB21F9BFB8
:102BB000FB210940FB21F93F075C143326A6A13C09
:102BC000FDF78CFCFFF737FCFFF7FCF8FEF717FC6E
:102BD0003220FDF761FBFEF789FD4FF4FA70FDF737
:102BE0005BFBFEF761FCFEF7E7FCFEF73BFD1648DA
:102BF000FDF7FAFF1548FDF7F7FF08211348FEF728
:102C0000E3F90C211148FEF7DFF9114E114D124F77
:102C1000124CDFF84C904FF400581248FEF7ACFB12
:102C2000FEF7CAFA207860B12968B14201DAB942E8
:102C3000F3D380F00100207041464846FDF733FC95
:102C4000EBE7FEF7ADFFE8E7EC000020A400002072
:102C500000008C424400002000008CC200000020D4
:102C6000001001409800002021F00042A2F16052C3
:102C7000B2F5801F01F0004328BFD2F17F6C0BD961
:102C80005FEA001C43EAC20242EB507018BF704773
:102C900028BF20F001007047B2F5801FBCBF184666
:102CA00070474FEA410C1CF5001F02D2084600F0A5
:102CB000B2BD70B500F0D4FA00000089FFF7F6BF8E
:102CC0004FF00040A0F580007047000010B591EA79
:102CD000030F48BF83F0004300F12A83841A71EB8D
:102CE000030C05D2121943EB0C03001B61EB0C0122
:102CF000DFF824E14FEA1154A4EB135C1EEA430F02
:102D000018BF9EEA445F73D023EA0E03DCF1200E65
:102D100021EA045143F4801332D322FA0CFE10EB63
:102D20000E0023FA0CFE41EB0E01CCF1200E03FA4B
:102D30000EFE10EB0E0051F10001B1F5801FCCF139
:102D4000200E32D201EB045112FA0EF2BDE810400F
:102D500058BF7047401C38BF5FEA420218BF704737
:102D6000002814BF20F0010041F100014FEA4103A7
:102D700013F5001F38BF7047A1F1C04100F0BEBA83
:102D8000012A43EB0302ACF1200CDCF11F0E32BF31
:102D90004FF0000E23FA0CF310EB030041EB04514B
:102DA000B4EB115FD0D0A1EB045101F580114908BB
:102DB0005FEA300001EB04510ED350F1000038BF40
:102DC00012FA0EFE08D1BDE81040C9E7401C38BF1A
:102DD0005FEA4202CAD1C3E7BDE810404FEA4103AF
:102DE00013F5001F38BF7047A1F1C04100F086BA4B
:102DF0009EEA445F08D011EA5E0FBDE8104004BFB0
:102E000001F0004100207047BDE8104070B500F0AF
:102E100027FA00BF64FBBE3E0000E0FF02494FF00E
:102E2000000000F072BD00BF0000F87F2DE9C04136
:102E300030B4DFF8A0C23CEA111418BF3CEA131406
:102E400000F0EC8081EA03051CEA111444EAD57411
:102E500018BF1CEA131500F0C780A4EB05044FF05F
:102E6000004545EAC12145EAC32341EA505143EAFE
:102E7000525304F17F74994204F500344FEAC020A4
:102E80004FEAC22208BF904200F09C804FEA1365CF
:102E90000FF24016765D4FEA134506FB05F7C7F1C2
:102EA000807706FB07F74FEAD737A7FB0368764220
:102EB000C8F58038A7FB06CE38BFA8F1010807FB8C
:102EC00008E64FF0000EA6FB028CE6FB03CEDCF119
:102ED000000CCEF1004E38BFAEF1010EA6FB0C582F
:102EE0004FF000074FF00005E6FB0E87A1FB08C678
:102EF000A0FB07CE16EB0E0645F10005E1FB0765CA
:102F000015F1E04E7EBFA4F580345FEA46066D41C0
:102F100016F1800745F100054FEA17274FEA0666CC
:102F200047EA0567A6F1DE46B6F1805F4FEA152550
:102F30001FD9384624F0010C05EBC471BCF1FE6FBB
:102F400001EB0C1102D8F0BCBDE8008124425CBF4B
:102F500001F5801E9EEAC47F02D4F0BCBDE800816A
:102F6000244238D4F0BCA1F1C041BDE8004100F0DA
:102F7000C5B94FEAD22242EA43524FEAD323A7FB14
:102F800002864FEAD02040EA415007FB03661EEA62
:102F90000E0F4FEAD12105FB026658BFA6EB005683
:102FA000B6EB00564FEA520E4EEAC37E18EB0E0EF9
:102FB00056EB530EBDD518EB02085E417F1C55F150
:102FC0000005B6E74FF480154FF000074FF00006FC
:102FD0004FF00008ADE7F0BC4FF0000001F1C04138
:102FE00001F00041BDE8008111EA0C1F0CEA131545
:102FF00000D00CE013EA0C1F00F025804FF0000019
:10300000F0BC81EA030101F00041BDE80081F0BCA1
:10301000BDE8004181EA030100F070B9F0BCBDE8F1
:10302000004170B500F01CF9097EFC3E00F007B8C5
:1030300081EA03014FF0000001F00041704781EA8E
:10304000030100F05BB9F0BCBDE800414FF00000A7
:1030500021497047FFFDFBF9F7F5F4F2F0EEEDEBD7
:10306000E9E8E6E4E3E1E0DEDDDBDAD8D7D5D4D386
:10307000D1D0CFCDCCCBCAC8C7C6C5C4C2C1C0BFD2
:10308000BEBDBCBBBAB9B8B7B6B5B4B3B2B1B0AFD8
:10309000AEADACABAAA9A8A8A7A6A5A4A3A3A2A1BC
:1030A000A09F9F9E9D9C9C9B9A9999989797969577
:1030B00095949393929191908F8F8E8E8D8C8C8B13
:1030C0008B8A89898888878786858584848383829B
:1030D000828181800000FF070000F87F10F000422D
:1030E00048BF4042B0FA80F310FA03F10AD0C3F1AE
:1030F0001D0303F580634FEA415002EB035202EBDC
:10310000D12170474FF0000070470000DFF848C140
:1031100070B51CEA111E1EBF1CEA13159EEA0C0FA7
:1031200095EA0C0F00F06F8081EA030423EA4C1348
:103130004EEAD47E21EA4C1141F4801143F480130D
:10314000AE44A1FB024CA0FB0365AEF17F7E3619B5
:1031500055EB0C05A1FB034C4CF10003A0FB021C3A
:1031600016EB0C06654153F10003094218BF46F007
:10317000010613F4007F0BD14FEA03314FEA05300B
:10318000340341EA155140EA16506FF003020AE099
:103190004FEAC3214FEAC520F40241EA555140EA03
:1031A00056506FF0020202EB2E4201EB025585EA07
:1031B000CE710AD05FEA440C18BF24F0004450F1ED
:1031C000000041F1000120EAD47040F2FE7C62452B
:1031D00000D270BDA84214BF4FF080444FF040446D
:1031E000002E08BF0024BEF1806FA8BFA1F1C0412E
:1031F000BDE8704080F282804FF0000001F1C041D4
:1032000001F0004170479EEA0C0F0CEA131518BF3D
:1032100095EA0C0F06D04FF0000081EA030E0EF085
:10322000004170BD00F01CF88900013E00F007B8B5
:1032300000F009B84FEA430C5FEA5C5C08D081EA11
:10324000030100F05BB84FEA410C5FEA5C5CF6D129
:103250004FF00000014970470000FF070000F87FB1
:103260000EF1020E2EF0030E5EF8046B364205D40A
:10327000012A43EB030515F5001F12D8012841EB85
:10328000010C1CF5001F0CD80ED14FEAD17C15F5AE
:10329000001F0CEB4C0C0CF1020C08BF4CEBD37C68
:1032A00004E04FF0080C01E04FEAD37C0CEB4C0536
:1032B00026FA05F606F00706B6F1040C06D20EEB68
:1032C000860CBDE870404CF0010C6047DFE80CF064
:1032D000090B02024FF000414FF00000A1F5002160
:1032E00070BD19461046012851EB010418BFD4F5F2
:1032F000001484BF002001F0004170BD0808A0F553
:1033000000114FEA3101704791EA030F10B581F0C7
:1033100000413FF5E3AC83F0004300F009B8000042
:1033200010B591EA030F48BF83F000433FF5D6ACD8
:10333000841A71EB030C07D212198CF0004C43EB8A
:103340000C03001B61EB0C01DFF8A4E14FEA115400
:10335000A4EB135C1EEA430F18BF9EEA445F00F023
:10336000B08023EA6E03524221EA0451C3EB6E039C
:1033700038BF5B1EDCF1200E25D322FA0CFE10EBC9
:103380000E0043FA0CFE41EB0E01CCF1200E03FAC5
:103390000EFE10EB0E0051F10001CCF1200E29D4ED
:1033A00012FA0EF201EB0451BDE8104058BF70470D
:1033B000401C1CBFB2F1004F704700280CBF491CD5
:1033C00020F00100704712EB020E43EB030218BF1E
:1033D0004FF0010E4EEA4202ACF1200CDCF11E0E61
:1033E00054D943FA0CFE10EB0E0051F1FF31CCF131
:1033F0001E0ED5D50EF1010E12FA0EFE404141EB24
:10340000010101EB445C5FEA5C5C10D910EBDE70FB
:1034100001EB045138BFBEF1004FBDE8104018BFAA
:10342000704700280CBF491C20F00100704730D2C3
:103430004FEAD42C11F5001124F400641BD0B1FA2A
:1034400081F20B3AA41AA41ED2F12003914030FA63
:1034500003F31943904001EBCC71002C01EB0451B4
:10346000BDE81040A8BF704701F1C0414FF0000017
:1034700001F000417047B0FA80F310FA03F100D177
:1034800010BDE41A173C4805C90AE4E701EB0451F2
:1034900010BD491001EB0451BDE810404FEA300067
:1034A00002E04FF0000170474A0008BF0042F8D028
:1034B000B2F5001F28BF704701F000414FF0000037
:1034C00070479EEA445F07D011EA5E0FBDE81040E6
:1034D00004BF002100207047BDE8104070B5FFF721
:1034E000BFFE00BF40DFF63E83F00041104670474C
:1034F0000000E0FF43004FEAD30C4FEA3C0C43408E
:103500001FBF40070CF1605113F0FE4F70471CF0D5
:10351000006F03D100200CF0004170470CF0004315
:1035200043EA507010B540EACC0000F02EF900BF1D
:10353000000000924FEA0001FFF7E0BE4FF00041AB
:103540004FF00000A1F500217047000090EA010F44
:1035500048BF81F0004100F16A81421A3CBF801AE5
:1035600089184FEAD0524FF07F4C1CEA410FA2EB72
:10357000D15318BF9CEA026F00F03B804FF0004C23
:103580004CEA00204CEA012121FA03FC10EB0C0C60
:103590001ED202F1FF325FEA1C2040EBC25038BF5E
:1035A00070471CF07F0F4FEA400C18BFBCF17F4FF3
:1035B00038BF7047C3F12003994008BF20F00100D5
:1035C000BCF17F4F38BF7047A0F1C04000F023B975
:1035D0004FEA3C00000A40EBC25028BF1CF0FF0F2E
:1035E0004FEA400CE6D018BFBCF17F4F38BF7047A0
:1035F000EAE79CEA026F05D010EA5C0F08BF00F012
:103600000040704710B500F0C0F800BF64FBBE3E3C
:1036100041000B0ED3F19E0208D950F400034FEA8B
:10362000032323FA02F048BF4042704710B500F070
:10363000ACF800BF49922480002070476FF0004230
:1036400082EA200070470000C10DD1F19E0206DB26
:103650004FEA002343F0004323FA02F07047004290
:1036600007D54FEA4001B1F1FE4F02D24FF0000002
:10367000704710B500F089F8499224800020704707
:103680006FEA2000704700004FF47F0C1CEAD01254
:103690001EBF1CEAD11392EA0C0F93EA0C0F00F044
:1036A000478090EA010F48BF42F480724FF0004C0F
:1036B0004CEA00204CEA012102EB0302A0FB0113BB
:1036C000A2F50002002918BF43F001035B0028BFE8
:1036D0004FEA330342EB22425FEA132C4CEBC25019
:1036E0002EBFBCEB436FB2F57C0F70474FEA036C03
:1036F000BCF1004F08BF20F00100B2F57C0F38BFCD
:1037000070470BD582F0FF0212F5803FC8BF7047AB
:1037100000F1C040D8BF00F00040704700F5000C39
:103720005FEA4C0C48BF7047B0F1C04000F073B87E
:1037300090EA010F0CEAD11348BF42F4807262454F
:1037400038BF634504D280EA010000F000407047B2
:1037500010B500F01AF800BF8900013E00F007B86C
:1037600000F009B85FEA410C5FEA1C6C08D080EAFF
:10377000010000F050B85FEA400C5FEA1C6CF6D123
:103780004FF00040A0F5800070470EF1020E2EF0C1
:10379000030E5EF8044B244204D44FEA4102B2F116
:1037A0007F4F11D84FEA4003B3F17F4F0CD80ED1B1
:1037B0004FEAD07CB2F17F4F0CEB4C0C0CF1020CB9
:1037C00008BF4CEBD17C04E04FF0080C01E04FEA5D
:1037D000D17C0CEB4C0324FA03F404F00704B4F19D
:1037E000040C06D20EEB840CBDE810404CF0010C2A
:1037F0006047DFE80CF0070802024FF00040A0F538
:10380000800010BD0846420018BFD2F1807288BF08
:1038100000F0004010BDFF2141EAD050C0057047C4
:1038200090EA010F48BF81F000413FF596AE421A81
:1038300004D882F00042A0EB020011444FEAD052BB
:103840004FF07F4C1CEA410FA2EBD15318BF9CEA0A
:10385000026F4AD04FF0004C4CEA00204CEA0121A4
:1038600021FA03FCB0EB0C0C0FD412F0FE0F36D093
:103870005FEA4C001DD5001240EBC25038BF7047C4
:103880001CF03F0F18BF70470BE0A2F101025FEA86
:103890001C2040EBC25038BF70471CF07F0F18BF90
:1038A0007047C3F12003994014BF401E20F001006F
:1038B000704780084FEA122308BF7047B0FA80FCB7
:1038C000A2EB0C02CCF1280C60FA0CF093EA122F58
:1038D00004BF00EBC25070474FEAC3707047130A31
:1038E0005FEADC1008BF7047F6E79CEA026F04D07D
:1038F00010EA5C0F08BF0020704710B5FFF745FFC6
:1039000040DFF63E81F0004070470CF00F03092BBA
:1039100008BF082000F059800A2B0BD0082B18BFD5
:10392000704708BF1CF0400F0AD04FF000004FF066
:10393000000170471CF0400F18BF4FF00040704767
:103940001CF0100F08D020F0704300F07F4242EAD4
:10395000D3014FEA4370704700F0604021F07F428E
:1039600042EA000201F07F4040EA727070474FF077
:10397000FF0C4CF4E06C1CEA11531CBF9CEA030CD6
:103980009445C2BFDA4201EB02517047002B0DD0C3
:10399000BCF1000F0FD0002A01F00041A4BF41F09C
:1039A000E04141F07F614FF00000704701F00041BD
:1039B0004FF00000704750EA01334FF09B0C18BFE6
:1039C0004CF0806C7FF42AAA70471CF4801F11D041
:1039D0001CF4E02F03D06FEACC31490070474FF060
:1039E0004050EFF3008222F0704242EA000282F37C
:1039F000008870474FF00000704701020203040581
:103A0000060708090A0B0C0D0E0F1010000000002D
:103A1000000000000102030406070809000000007E
:103A2000000000000000000000000000000000F89E
:103A300000000000000000333000000000100C0601
:103A4000100C0600000000000000000040C078409C
:103A5000C0784000043F04043F040400007088FC68
:103A600008300000001820FF211E0000F008F000C0
:103A7000E018000000211C031E211E0000F0088831
:103A8000700000001E2123241927211010160E009B
:103A9000000000000000000000000000000000E046
:103AA000180402000000000718204000000204185B
:103AB000E00000000040201807000000404080F0B7
:103AC000804040000202010F01020200000000F0ED
:103AD000000000000101011F0101010000000000C1
:103AE0000000000080B07000000000000000000036
:103AF00000000000000101010101010100000000BF
:103B00000000000000303000000000000000000055
:103B100080601804006018060100000000E0100832
:103B20000810E000000F102020100F00001010F807
:103B3000000000000020203F202000000070080846
:103B400008887000003028242221300000300888C6
:103B5000884830000018202020110E000000C020EE
:103B600010F8000000070424243F240000F808880F
:103B7000880808000019212020110E0000E010889C
:103B800088180000000F112020110E0000380808CE
:103B9000C83808000000003F0000000000708808DE
:103BA00008887000001C222121221C0000E010085F
:103BB0000810E0000000312222110F00000000C0B8
:103BC000C000000000000030300000000000008055
:103BD0000000000000008060000000000000804045
:103BE000201008000001020408102000404040405E
:103BF00040404000040404040404040000081020B1
:103C000040800000002010080402010000704808F5
:103C10000808F0000000003036010000C030C8285D
:103C2000E810E0000718272423140B000000C03818
:103C3000E0000000203C23020227382008F8888892
:103C400088700000203F202020110E00C03008089E
:103C500008083800071820202010080008F8080875
:103C60000810E000203F202020100F0008F888886E
:103C7000E8081000203F20202320180008F888883A
:103C8000E8081000203F200003000000C0300808B2
:103C90000838000007182020221E020008F808003B
:103CA0000008F808203F210101213F20000808F802
:103CB000080800000020203F202000000000080825
:103CC000F8080800C08080807F00000008F888C0E5
:103CD00028180800203F20012638200008F8080096
:103CE00000000000203F20202020300008F8F800CD
:103CF000F8F80800203F003F003F200008F830C0DF
:103D00000008F808203F200007183F00E0100808CE
:103D10000810E0000F10202020100F0008F80808FD
:103D20000808F000203F210101010000E010080810
:103D30000810E0000F18242438504F0008F8888835
:103D400088887000203F2000030C30200070880815
:103D5000080838000038202121221C00180808F823
:103D6000080818000000203F2000000008F80800A4
:103D70000008F808001F202020201F000878880075
:103D800000C83808000007380E010000F80800F8E5
:103D90000008F800033C0700073C0300081868808F
:103DA0008068180820302C03032C30200838C80005
:103DB000C83808000000203F200000001008080854
:103DC000C83808002038262120201800000000FEF6
:103DD000020202000000007F40404000000C30C0A2
:103DE00000000000000000010638C00000020202CE
:103DF000FE000000004040407F0000000000040280
:103E000002020400000000000000000000000000AA
:103E1000000000008080808080808080000202049A
:103E20000000000000000000000000000000808092
:103E3000808000000019242222223F2008F8008000
:103E400080000000003F112020110E0000000080C3
:103E500080800000000E1120202011000000008052
:103E60008088F800000E112020103F200000808084
:103E700080800000001F222222221300008080F098
:103E8000888888180020203F2020000000008080C3
:103E900080808000006B94949493600008F8008008
:103EA00080800000203F210000203F200080989863
:103EB000000000000020203F2020000000000080C3
:103EC0009898000000C08080807F000008F8000003
:103ED00080808000203F24022D302000000808F858
:103EE000000000000020203F202000008080808013
:103EF00080808000203F20003F20003F80800080A5
:103F000080800000203F210000203F2000008080B2
:103F100080800000001F202020201F008080008063
:103F20008000000080FFA12020110E000000008012
:103F300080808000000E112020A0FF808080800003
:103F40008080800020203F21200001000000808030
:103F5000808080000033242424241900008080E025
:103F6000808000000000001F2020000080800000F2
:103F700000808000001F202020103F2080808000D3
:103F80000080808000010E300806010080800080E3
:103F9000008080800F300C030C300F000080800008
:103FA000808080000020312E0E3120008080800033
:103FB0000080808080818E701806010000808080E3
:103FC000808080000021302C222130000000000081
:103FD000807C020200000000003F40400000000022
:103FE000FF00000000000000FF0000000002027C53
:103FF000800000000040403F00000000000601017A
:1040000002020404000000000000000000000000A4
:104010004FBB610567ACDD3F182D4454FB21E93FE0
:104020009BF681D20B73EF3F182D4454FB21F93FCF
:10403000E2652F227F2B7A3C075C143326A6813C55
:10404000BDCBF07A8807703C075C143326A6913C00
:10405000C4EB98999999C9BF711623FEC671BCBF6C
:104060006D9A74AFF2B0B3BF9AFDDE522DDEADBFD4
:104070002F6C6A2C44B4A2BF0D5555555555D53FEC
:10408000FF8300922449C23F6E204CC5CD45B73F07
:10409000513DD0A0660DB13FEB0D76244B7BA93F7F
:1040A00011DA22E33AAD903F00000000000000006A
:1040B000D0400008000000209800000028010008FF
:1040C0006841000898000020000700004401000833
:1040D00000010001000000000000000000000000DE
:1040E00000000000000001000100000010000000BE
:1040F0000000000000127A00000000000000000034
:1041000001010201010101010000000000000000A6
:10411000000000000000000000000000000000009F
:104120000000000000000000010101000000F0425A
:10413000000000000000000000000000000000007F
:10414000000000000000000000000000000000006F
:1041500000009242000080400000FA43000000008E
:08416000000000000000000057
:04000005080000ED02
:00000001FF
